:020000040800F2
:1000000020080020DD010008D5110008CD100008EF
:10001000D1110008810D0008E5180008000000005B
:10002000000000000000000000000000951400081F
:10003000A90D0008000000003D130008A9150008E4
:10004000F7010008F7010008F7010008F7010008B0
:10005000F7010008F7010008F7010008F7010008A0
:10006000F7010008F70100082B0E0008F70100084F
:10007000F7010008F7010008F7010008F701000880
:10008000F7010008F7010008F7010008F701000870
:10009000F7010008F7010008F7010008F701000860
:1000A000F7010008F7010008F7010008F701000850
:1000B000F7010008F7010008F7010008F701000840
:1000C000F7010008F7010008F7010008F701000830
:1000D000F70100080D16000841160008F701000896
:1000E000F7010008F7010008F7010008F701000810
:1000F000F7010008F7010008F7010008F701000800
:10010000F7010008F7010008F7010008F7010008EF
:10011000F7010008F7010008F7010008F7010008DF
:10012000F7010008F7010008F7010008F7010008CF
:1001300000F002F800F042F80AA090E8000C8244B7
:100140008344AAF10107DA4501D100F037F8AFF294
:10015000090EBAE80F0013F0010F18BFFB1A43F0A5
:1001600001031847D4190000F4190000103A24BF05
:1001700078C878C1FAD8520724BF30C830C144BF0C
:1001800004680C607047000000230024002500264E
:10019000103A28BF78C1FBD8520728BF30C148BFEA
:1001A0000B607047642900F0A580732900F0D681A8
:1001B000002070471FB51FBD10B510BD00F000FA3C
:1001C0001146FFF7F7FF01F0E9FB00F01EFA03B458
:1001D000FFF7F2FF03BC01F087FB000009488047EE
:1001E00009480047FEE7FEE7FEE7FEE7FEE7FEE719
:1001F000FEE7FEE7FEE7FEE704480549054A064B31
:1002000070470000AD1500083101000820020020F1
:100210002008002020040020200400207047000057
:100220000FB4044910B503AA029800F09BF910BC62
:100230005DF814FB2C0000202DE9F0410E46044629
:10024000002020622046E168884730B3252805D089
:10025000D4E901219047206A401CF2E7E16820467A
:1002600000278847050018D0A5F14100192802D8B9
:1002700020354FF400673246294620462760FFF7B5
:1002800091FF40B1012804D0F61D26F0070608367C
:10029000D8E7361DD6E72846DAE7206ABDE8F081C0
:1002A00070B50C460546012A05D02878800600D591
:1002B000EA69002302E0012305E05B1C934202D2BD
:1002C000E05C0028F9D1A869E618C01AA861286A7C
:1002D000184428622846AFF3008004E0D5E90121E4
:1002E00014F8010B9047B442F8D32846AFF30080CE
:1002F00070BD00002DE9F041064600241068752904
:10030000314616A510D0AFF30080002802DA404233
:1003100013A507E031688A0701D512A502E0490755
:1003200004D511A5012401E0AFF3008000210A22C9
:1003300006F1240709E0B0FBF2FCB0FBF2F302FB8C
:100340001C00303078541846491C0028F3D123464D
:100350002A463046BDE8F04100F095B800000000A4
:100360002D0000002B0000002000000030B50546E5
:100370000B462A4613F8014B12F8010B08B1A042B4
:10038000F8D01CB1002802D06D1CF1E7284630BD22
:10039000032A40F2308010F0030C00F0158011F8B1
:1003A000013BBCF1020F624498BF11F801CB00F889
:1003B000013B38BF11F8013BA2F1040298BF00F8DD
:1003C00001CB38BF00F8013B11F0030300F025809A
:1003D000083AC0F0088051F8043B083A51F804CBC1
:1003E000A0E80810F5E7121D5CBF51F8043B40F887
:1003F000043BAFF30080D20724BF11F8013B11F892
:1004000001CB48BF11F8012B24BF00F8013B00F8D5
:1004100001CB48BF00F8012B704710B5203AC0F05F
:100420000B80B1E81850203AA0E81850B1E81850F5
:10043000A0E81850BFF4F5AF5FEA027C24BFB1E832
:100440001850A0E8185044BF18C918C0BDE81040A3
:100450005FEA827C24BF51F8043B40F8043B08BFAC
:100460007047D20728BF31F8023B48BF11F8012B73
:1004700028BF20F8023B48BF00F8012B70477047A7
:100480007047704770472DE9F0470D4699469246F0
:10049000044600F124080168880604D5E06921F0CB
:1004A0001001216000E00120A84201DD471B00E0AF
:1004B0000027A1697A1902EB0900081AA0612078C7
:1004C000C00602D42046AFF30080002608E0D4E93D
:1004D00001211AF806009047206A401C761C206211
:1004E0004E45F4DB2078C0060AD52046AFF30080E5
:1004F00006E0D4E9012130209047206A401C2062A8
:10050000381EA7F10107F4DC07E0D4E9012118F84F
:1005100005009047206A401C2062281EA5F10105B5
:10052000F3DC2046AFF300802078000602D50220DD
:10053000BDE8F0870120FBE710B5436913B1AFF3C5
:10054000008001E0FFF7ACFE012010BD127800F141
:1005500024010A7000224A700122EDE711684FF071
:10056000FF32E9E7074B70B50D467B4400F011F808
:100570000446284600F020F810B14FF0FF3070BD5F
:10058000204670BD1314000001694A1C02610878FE
:10059000704700B58FB0CDE90131002105910549C3
:1005A0007944CDE9031011466846FFF745FE0FB0C8
:1005B00000BD0000E5FFFFFF007B00F080007047FA
:1005C000754600F029F8AE4605006946534620F00E
:1005D0000700854618B020B5FFF70EFEBDE82040A5
:1005E0004FF000064FF000074FF000084FF0000BEF
:1005F00021F00701AC46ACE8C009ACE8C009ACE8A2
:10060000C009ACE8C0098D4670470446AFF30080CE
:100610002046FFF7DCFD000000487047C0010020C5
:1006200008B501210C2000F0ABFE4FF48070ADF84E
:10063000000010208DF8030003208DF802006946A9
:10064000084800F06DFC4FF48070ADF800001020F9
:100650008DF8030003208DF802006946024800F07F
:100660005FFC08BD00080140000C014070B5044665
:100670000D462246294610A0FFF7D2FD4FF4967092
:1006800001F058F916A11848FFF770FE17490860E5
:1006900005E013A11448FFF769FE144908601348E8
:1006A00000680028F5D0104801F008F90020104932
:1006B000087000F067FB70BD41542B514C5744410A
:1006C000544153454E443D31392C302C302C256457
:1006D0002C25732C3078303130300D0A00000000AA
:1006E00053454E44204F4B00F600002014000020DC
:1006F0003000002010B5032400F044FB78A0FFF781
:100700008FFD4FF4967001F015F977A17748FFF748
:100710002DFE7749086010E000F034FB70A0FFF771
:100720007FFD4FF4967001F005F96FA16F48FFF758
:100730001DFE6F490860601EC4B26D48006808B9AC
:10074000002CE9D11CB96BA001F0B8F802E06DA053
:1007500001F0B4F86FA0FFF763FD4FF4967001F05D
:10076000E9F86FA0FFF75CFD4FF4967001F0E2F836
:100770006EA001F0A3F800F005FB72A0FFF750FD9A
:100780004FF4967001F0D6F871A15848FFF7EEFDCE
:1007900057490860032411E06EA001F08FF869A0AA
:1007A000FFF73EFD4FF4967001F0C4F868A14F4882
:1007B000FFF7DCFD4E490860601EC4B24C4800687B
:1007C00008B9002CE8D11CB96DA001F077F802E05F
:1007D00070A001F073F800F0D5FA73A0FFF720FDC8
:1007E0004FF4967001F0A6F800F0CCFA72A0FFF773
:1007F00017FD4FF4967001F09DF872A13B48FFF78A
:10080000B5FD3B490860032410E000F0BBFA6AA084
:10081000FFF706FD4FF4967001F08CF869A133489C
:10082000FFF7A4FD32490860601EC4B2304800687A
:1008300008B9002CE9D11CB965A001F03FF802E02D
:1008400067A001F03BF800F09DFA69A0FFF7E8FC13
:100850004FF4967001F06EF868A12448FFF786FD0A
:100860002349086008460068002838D00846006818
:10087000007A30380968C979303901EB810100EB21
:1008800041006049087008460078632804D0184881
:100890000068C0793038D8B919E00020594981F88A
:1008A0007B0059A001F00AF801205E4908604FF46E
:1008B000967001F03FF84FF4967001F03BF800207D
:1008C0005949C1F8A0014FF4967001F033F8E4E7FC
:1008D00001204C4981F87B0054A000F0EFFF10BDCF
:1008E00041540D0A000000004F4B0000F6000020AC
:1008F00014000020CDA8D0C5CAA7B0DCA3A1200D4C
:100900000A000000CDA8D0C5D5FDB3A3A3A1200D3A
:100910000A0000004154453026570D0A000000002F
:1009200041542B4346554E3D310D0A00D5FDD4DAD6
:10093000BCECB2E2BFA8D7B4CCAC2E2E2EA3A10D36
:100940000A00000041542B43494D490D0A000000A4
:1009500034363000BFA8D0C5CFA2D2ECB3A3A3AC2D
:10096000C7EBBCECB2E9BFA8D7B4CCACA3ACBCB469
:10097000BDABD7D4B6AFD6D8C6F4A3A10D0A00003C
:10098000BFA8D0C5CFA2BBF1C8A1CAA7B0DCA3A1A4
:100990000D0A0000BFA8D0C5CFA2BBF1C8A1B3C942
:1009A000B9A6A3A10D0A000041542B43475041446E
:1009B00044523D310D0A000041542B4347415454E9
:1009C0003F0D0A002B43474154543A2031000000A8
:1009D000D7A2CDF8CAA7B0DCA3A10D0A0000000081
:1009E000D7A2CDF8B3C9B9A6A3A10D0A0000000093
:1009F00041542B434553510D0A0000002B434553EE
:100A00005100000048000020D0C5BAC5CBD1CBF7BB
:100A1000CAA7B0DCA3ACC7EBB2E9BFB4D4ADD2F285
:100A2000210D0A00A001214200002142D0C5BAC513
:100A3000C7BFA3A10D0A00001FB5002000900190C0
:100A40000290039003247CA0FFF7EAFB7EA000F055
:100A500035FF4FF4967000F06DFF7FA0FFF7E0FBCD
:100A60004FF4967000F066FF7EA0FFF7D9FB4FF4BD
:100A7000967000F05FFF84A18448FFF777FC8449FB
:100A8000086005E080A18148FFF770FC804908609C
:100A90007F4800680028F5D000F074F97DA0FFF7CA
:100AA000BFFB4FF4967000F045FF7DA17748FFF73C
:100AB0005DFC7749086005E079A17448FFF756FCB2
:100AC00073490860724800680028F5D00F2270480A
:100AD0000168C91D6846FFF75BFC00F053F96946E1
:100AE00071A0FFF79DFB4FF4967000F023FF66A105
:100AF0006648FFF73BFC6649086005E062A1634871
:100B0000FFF734FC62490860614800680028F5D0AE
:100B100000F038F968A0FFF783FB4FF4967000F0FF
:100B200009FF59A15948FFF721FC5949086005E020
:100B300055A15648FFF71AFC55490860544800680B
:100B40000028F5D000F01EF962A0FFF769FB4FF412
:100B5000967000F0EFFE4CA14C48FFF707FC4C49A3
:100B6000086005E048A14948FFF700FC48490860D3
:100B7000474800680028F5D05DA000F09FFE00F017
:100B800001F95EA0FFF74CFB4FF47A7000F0D2FE43
:100B90005EA13E48FFF7EAFB3D49086010E000F027
:100BA000F1F856A0FFF73CFB40F6B83000F0C2FE6B
:100BB00056A13648FFF7DAFB35490860601EC4B21B
:100BC0003348006808B9002CE9D11CB952A000F0E4
:100BD00075FE02E056A000F071FE5BA12B48FFF706
:100BE000C5FB2B49086005E057A12848FFF7BEFB6D
:100BF00027490860264800680028F5D000F0C2F8B0
:100C000057A0FFF70DFB4FF4967000F093FE1EA166
:100C10001E48FFF7ABFB1E49086005E01AA11B4800
:100C2000FFF7A4FB1A490860194800680028F5D0AE
:100C300000F0A8F81FBD000041542B514C57434C05
:100C40004F53450D0A000000B9D8B1D5C9CFB4CE75
:100C5000C1ACBDD30D0A000041542B514C57444543
:100C60004C0D0A0041542B514C57534552563D22CE
:100C70003138302E3130312E3134372E313135226A
:100C80002C353638330D0A004F4B0000F60000209B
:100C90001400002041542B4347534E3D310D0A00B0
:100CA0002B4347534E3A000041542B514C57434F6E
:100CB0004E463D25730D0A0041542B514C5741447B
:100CC000444F424A3D31392C302C312C2230220DF8
:100CD0000A00000041542B514C574144444F424AB2
:100CE0003D31392C312C312C2230220D0A000000EC
:100CF000D7A2B2E1B3C9B9A60D0A000041542B51E5
:100D00004C574F50454E3D300D0A0000434F4E4E5C
:100D1000454354204F4B0000C1ACBDD3B5E7D0C50F
:100D2000D4C6C6BDCCA8CAA7B0DCA3A10D0A0000DA
:100D3000C1ACBDD3B5E7D0C5D4C6C6BDCCA8B3C978
:100D4000B9A6A3A10D0A00002B514C574F425345A1
:100D50005256453A20302C31392C302C30000000CE
:100D600041542B514C574346473D226461746166A0
:100D70006F726D6174222C312C310D0A000000005D
:100D800000BFFEE7002004E00021054A1154411C89
:100D9000C8B26428F8DB0021024A117070470000D5
:100DA000F6000020300000207047000008B5012147
:100DB000082000F0E5FA1020ADF8000028208DF89A
:100DC000030003208DF802006946024800F0A8F8ED
:100DD00008BD0000000C01400EB5FFF7E7FF012140
:100DE000084600F0CDFA0421012000F079F8102027
:100DF000019000208DF8080010208DF809000120D6
:100E00008DF80A0001A800F021F80A208DF80000F2
:100E100002208DF8010003208DF8020001208DF8DA
:100E20000300684600F0D8F90EBD10B50A2000F0A6
:100E300081FD00F0B7FD102000F002F810BD0000A9
:100E40000149086070470000140401400021234953
:100E50008279002A3AD00A46126803689A430B4600
:100E60001A600A1D126803689A430B1D1A60027902
:100E700011440A6803681A430A60184A0832126863
:100E800003689A43154B08331A601A1D12680368E9
:100E90009A43124B0C331A604279102A0ED11A1F52
:100EA000126803681A430D4B08331A601A1D126842
:100EB00003681A43094B0C331A600DE00749427965
:100EC00011440A6803681A430A6005E00279114474
:100ED0000A6803689A430A607047000000040140F2
:100EE00030B500228B071C0F0F2303FA04F20B4BC3
:100EF0008C1053F824309343084C8D1044F825305F
:100F000023468C1053F824308C07240F00FA04F485
:100F10002343024C8D1044F8253030BD08000140B9
:100F20002DE9F04102460025002600200023002480
:100F3000002791F803C00CF00F0591F803C00CF0E6
:100F4000100CBCF1000F03D091F802C04CEA05056B
:100F500091F800C0BCF1000F31D0146800202BE0E4
:100F60004FF0010C0CFA00F3B1F800C00CEA0306D4
:100F70009E4220D183004FF00F0C0CFA03F7BC43C4
:100F800005FA03FC4CEA040491F803C0BCF1280FF5
:100F900006D14FF0010C0CFA00FCC2F814C00AE0B4
:100FA00091F803C0BCF1480F05D14FF0010C0CFAC9
:100FB00000FCC2F810C0401C0828D1D31460B1F85E
:100FC00000C0BCF1FF0F34DD546800202EE000F1BA
:100FD000080C4FF0010808FA0CF3B1F800C00CEA55
:100FE00003069E4221D183004FF00F0C0CFA03F749
:100FF000BC4305FA03FC4CEA040491F803C0BCF1BD
:10100000280F05D100F1080C08FA0CF8C2F814807A
:1010100091F803C0BCF1480F07D100F1080C4FF064
:10102000010808FA0CF8C2F81080401C0828CED33A
:101030005460BDE8F0810000F0B50A4600230024AA
:101040000021002500F00046B6F1004F02D11D4EF0
:10105000F16901E01B4E7168C0F3034583B200F4EF
:101060004016B6F5401F08D121F07061154E766824
:1010700026F07066134F7E6012E000F48016B6F51D
:10108000801F06D1032606FA05F4A14341F07061E2
:1010900006E0460D360103FA06F6B14341F07061F1
:1010A00022B1460D360103FA06F6314300F0004640
:1010B000B6F1004F02D1034EF16101E0014E7160C3
:1010C000F0BD0000000001400161704700BFFEE775
:1010D000F0B585B004460E4614220FA16846FFF70E
:1010E0009CF9124D374610E02078694601EB20103C
:1010F000007805F8010B14F8011B01F00F001DF832
:10110000000005F8010B781EC7B2002FECDC0025AB
:10111000064805B0F0BD0000303132333435363783
:10112000383941424344454600000000C4000020D5
:1011300008B501210D2000F023F94FF40040ADF86F
:10114000000010208DF8030003208DF8020069468E
:101150000E48FFF7E5FE4FF400410C48FFF7B4FFDF
:101160000220ADF8000010208DF8030003208DF858
:10117000020069460548FFF7D3FE02210348FFF746
:10118000A3FF01210248FFF757FF08BD00080140F7
:101190000002300010B500F0ABFBFFF7C9FFFFF70E
:1011A0003FFA4FF4A06000F04FF84FF4E13000F048
:1011B0006FFC4FF4E13000F017FCFFF7F7FDFFF78D
:1011C0000BFE00F04BF8FFF795FAFFF735FC10BD6A
:1011D00000BFFEE77047000070B5002100230F221A
:1011E000C47804B3154C246804F4E064C4F5E064E6
:1011F000210AC1F10403CA40447804FA03F1847857
:101200001440214309010E4C0678A155047804F0DE
:101210001F050124AC4005786D11AD0005F1E025F6
:10122000C5F8004109E0047804F01F050124AC4032
:10123000044D0678761145F8264070BD0CED00E0AF
:1012400000E400E080E100E002490143024A11604D
:10125000704700000000FA050CED00E010B52CA06E
:10126000FEF7DEFF4FF4967000F064FB2AA12B48D6
:10127000FFF77CF8044626A0FEF7D2FF4FF49670E5
:1012800000F058FB24A12548FFF770F80446B4B9D4
:101290000120234908604FF4967000F04BFB4FF497
:1012A000967000F047FB4FF4967000F043FB4FF44C
:1012B000967000F03FFB00201A49C1F8A00114A06D
:1012C000FEF7AEFF4FF4967000F034FB12A1134806
:1012D000FFF74CF8044674B90120134908604FF435
:1012E000967000F027FB4FF4967000F023FB00206F
:1012F0000E49C1F8A0010EA0FEF792FF4FF49670C0
:1013000000F018FB002008491C39086010BD0000DF
:1013100041540D0A000000004F4B0000F600002071
:10132000A081214200802142A001214200002142EF
:101330004154453026570D0A000000007047000058
:1013400029B1064AD2690243044BDA6104E0034A38
:10135000D2698243014BDA617047000000100240FD
:1013600029B1064A12690243044B1A6104E0034A98
:1013700012698243014B1A6170470000001002405D
:1013800029B1064A92690243044B9A6104E0034A78
:1013900092698243014B9A6170470000001002403D
:1013A00029B1064AD2680243044BDA6004E0034ADA
:1013B000D2688243014BDA6070470000001002409F
:1013C00030B500210022002400232D4D6D6805F06A
:1013D0000C0121B1042905D0082923D105E0294DAC
:1013E000056022E0274D05601FE0254D6D6805F47E
:1013F0007012234D6D6805F48034022505EB92428E
:101400001CB9214D554305600BE01D4D6D6805F479
:1014100000351DB11C4D5543056002E0194D554383
:10142000056002E0174D056000BF00BF144D6D68F8
:1014300005F0F0010909154D6B5C0568DD4045605C
:101440000F4D6D6805F4E061090A104D6B5C45684D
:10145000DD4085600A4D6D6805F46051C90A0B4D89
:101460006B5C4568DD40C560054D6D6805F4404125
:10147000890B074D6B5CC568B5FBF3F5056130BDA5
:101480000010024000127A0000093D0034000020E4
:1014900044000020704710B500F002F810BD0000B5
:1014A0000CB50020019000903348006840F4803073
:1014B0003149086000BF3048006800F400300090F7
:1014C0000198401C0190009818B90198B0F5A06FE0
:1014D000F1D12948006800F4003010B101200090DB
:1014E00001E0002000900098012843D123480068C3
:1014F00040F01000214908600846006820F0030011
:1015000008600846006840F0020008601A48406819
:10151000194948600846406848600846406840F4F9
:10152000806048600846406820F47C1048600846A7
:10153000406840F4E81048600846006840F0807059
:10154000086000BF0C48006800F000700028F9D067
:101550000948406820F00300074948600846406891
:1015600040F00200486000BF0348406800F00C00F3
:101570000828F9D10CBD00000010024000200240F4
:10158000042808D14FF0E021096941F004014FF02F
:10159000E022116107E04FF0E021096921F0040128
:1015A0004FF0E022116170477047000010B51348FA
:1015B000006840F001001149086008464068104981
:1015C00008400E494860084600680E4908400B492B
:1015D00008600846006820F48020086008464068DB
:1015E00020F4FE0048604FF41F008860FFF753FFAF
:1015F0004FF000600449086010BD00000010024078
:101600000000FFF8FFFFF6FE08ED00E010B540F225
:101610002551084800F090F858B1064800F048F904
:10162000C1B2054802780078401C034B187003488B
:10163000815410BD00380140310000205A010020C3
:1016400010B540F225510C4800F076F890B10A48E8
:1016500000F02EF9C1B2094802780078401C074B0F
:1016600018700748815418460078632802DD00206E
:101670001946087010BD00000044004030000020F2
:10168000F600002021B1828942F40052828104E0F8
:1016900082894DF6FF731A408281704710B5044667
:1016A0002048844209D101218803FFF779FE0021F7
:1016B0004FF48040FFF774FE32E01B48844209D1AA
:1016C00001214804FFF74CFE00214FF40030FFF7E2
:1016D00047FE25E01548844209D101218804FFF71F
:1016E0003FFE00214FF48020FFF73AFE18E010483B
:1016F000844209D10121C804FFF732FE00214FF4D2
:101700000020FFF72DFE0BE00A48844208D101219A
:101710000805FFF725FE00214FF48010FFF720FE9B
:1017200010BD000000380140004400400048004067
:10173000004C00400050004070B5024600240023D9
:101740000025002040F66A16B14200D100BFC1F367
:10175000421501F01F03012606FA03F3012D02D101
:101760009689334006E0022D02D1168A334001E00B
:10177000968A33400C12012606FA04F41688344087
:1017800013B10CB1012000E0002070BDF0B503469C
:10179000002400260025002040F66A17B94200D137
:1017A00000BF1846C1F3421401F01F06012707FAD3
:1017B00006F5012C01D10C3004E0022C01D11030CF
:1017C00000E014301AB107682F43076002E0076891
:1017D000AF430760F0BD00002DE9F04786B0054635
:1017E0000E460024A24600BFA1460027B08900B1E2
:1017F00000BF2F462C8A4CF6FF700440F08804434B
:101800002C82AC894EF6F3100440B088318908432D
:10181000718908430443AC81AC8A4FF6FF40044011
:10182000B0890443AC8201A8FFF7CAFD1F48874274
:1018300002D1DDF810A001E0DDF80CA0A88900F4C9
:10184000004040B10AEBCA0000EB0A1031684900C1
:10185000B0FBF1F807E00AEBCA0000EB0A103168B0
:101860008900B0FBF1F86420B8FBF0F00401200916
:10187000642101FB1089A88900F4004040B13220A6
:1018800000EBC900B0FBF1F000F00700044308E0F2
:10189000322000EB09106421B0FBF1F000F00F00E2
:1018A00004432C8106B0BDE8F087000000380140F9
:1018B00001468888C0F30800704700000BE000BFB5
:1018C0000749098801F040010029F9D00178044A4C
:1018D000121D1180401C01780029F0D170470000D2
:1018E0000038014000BFFEE7014600BF704700001E
:1018F00010B56FF00400FFF743FE0A4800680A497C
:10190000B0FBF1F0094908700846007800EB40018F
:10191000C1EBC0104FF6FF7101EAC0000449088016
:1019200010BD00000000002000127A0022000020FC
:10193000240000200146114A12884A434FF0E02358
:101940005A6100229A611A46126942F001021A6134
:1019500000BF4FF0E022106900F001021AB100F45C
:101960008032002AF5D04FF0E022126922F0010205
:101970004FF0E0231A6100229A6170472400002092
:1019800000BF054A128802F04002002AF9D0C2B214
:10199000014B1B1D1A80704700440040FFF7FAFB03
:1019A00000BFFEE710B532200D49087001204870D5
:1019B0000C480068012802D10020887002E0012054
:1019C0000749887003210648FFF782FB044603217C
:1019D0002046FEF74BFE4FF47A70FFF7ABFF10BDC9
:1019E0001D0000201081214210B586B0044601215F
:1019F0000420FFF7C5FC01214804FFF7A1FC2248A1
:101A0000FFF74CFE0420ADF8140003208DF81600FB
:101A100018208DF8170005A91C48FFF781FA082047
:101A2000ADF8140004208DF8170005A91748FFF73A
:101A300077FA26208DF8000000208DF801000120A3
:101A40008DF802008DF803006846FFF7C5FB01948E
:101A50000020ADF80800ADF80A00ADF80C00ADF8B4
:101A600010000C20ADF80E0001A90748FFF7B4FEE6
:101A7000012240F225510448FFF788FE0121024867
:101A8000FFF700FE06B010BD004400400008014012
:101A900010B586B00446012144F20400FFF770FC43
:101AA0002348FFF7FBFD4FF40070ADF8140003204E
:101AB0008DF8160018208DF8170005A91D48FFF7AE
:101AC0002FFA4FF48060ADF8140048208DF817000D
:101AD00005A91848FFF724FA25208DF800000320F7
:101AE0008DF801008DF8020001208DF80300684692
:101AF000FFF772FB01940020ADF80800ADF80A0072
:101B0000ADF80C00ADF810000C20ADF80E0001A9E6
:101B10000748FFF761FE012240F225510448FFF714
:101B200035FE01210248FFF7ADFD06B010BD0000F3
:101B30000038014000080140581B00080000002048
:101B4000480000006C010008A01B000848000020AD
:101B5000D80700008801000800A24A040000000025
:101B6000000000000102030406070809000000004D
:101B70000000000000000000000000000000000065
:101B80000000000000000000000000000000000055
:101B900001020304010203040607080902040608FF
:04000005080001DD11
:00000001FF
