:020000040800F2
:1000000048080020DD01000881120008550F000893
:100010007D120008810D0008891B00080000000007
:100020000000000000000000000000003B17000876
:10003000A90D000800000000E91300084D18000891
:10004000F7010008F7010008F7010008F7010008B0
:10005000F7010008F7010008F7010008F7010008A0
:10006000F7010008F7010008F7010008F701000890
:10007000F7010008F7010008F7010008F701000880
:10008000F7010008F7010008F7010008F701000870
:10009000F7010008F7010008F7010008F701000860
:1000A000F7010008F7010008F7010008F701000850
:1000B000F7010008F7010008F7010008F701000840
:1000C000F7010008F7010008F7010008F701000830
:1000D000F7010008B1180008E5180008F70100084A
:1000E000F7010008F7010008F7010008F701000810
:1000F000F7010008F7010008F7010008F701000800
:10010000F7010008F7010008F7010008F7010008EF
:10011000F7010008F7010008F7010008F7010008DF
:10012000F7010008F7010008F7010008F7010008CF
:1001300000F002F800F042F80AA090E8000C8244B7
:100140008344AAF10107DA4501D100F037F8AFF294
:10015000090EBAE80F0013F0010F18BFFB1A43F0A5
:100160000103184788250000A8250000103A24BF85
:1001700078C878C1FAD8520724BF30C830C144BF0C
:1001800004680C607047000000230024002500264E
:10019000103A28BF78C1FBD8520728BF30C148BFEA
:1001A0000B607047642900F0A580732900F0D681A8
:1001B000002070471FB51FBD10B510BD00F000FA3C
:1001C0001146FFF7F7FF01F061FD00F01EFA03B4DE
:1001D000FFF7F2FF03BC01F0D9FC0000094880479B
:1001E00009480047FEE7FEE7FEE7FEE7FEE7FEE719
:1001F000FEE7FEE7FEE7FEE704480549054A064B31
:100200007047000051180008310100084802002022
:1002100048080020480400204804002070470000DF
:100220000FB4044910B503AA029800F09BF910BC62
:100230005DF814FB380000202DE9F0410E4604461D
:10024000002020622046E168884730B3252805D089
:10025000D4E901219047206A401CF2E7E16820467A
:1002600000278847050018D0A5F14100192802D8B9
:1002700020354FF400673246294620462760FFF7B5
:1002800091FF40B1012804D0F61D26F0070608367C
:10029000D8E7361DD6E72846DAE7206ABDE8F081C0
:1002A00070B50C460546012A05D02878800600D591
:1002B000EA69002302E0012305E05B1C934202D2BD
:1002C000E05C0028F9D1A869E618C01AA861286A7C
:1002D000184428622846AFF3008004E0D5E90121E4
:1002E00014F8010B9047B442F8D32846AFF30080CE
:1002F00070BD00002DE9F041064600241068752904
:10030000314616A510D0AFF30080002802DA404233
:1003100013A507E031688A0701D512A502E0490755
:1003200004D511A5012401E0AFF3008000210A22C9
:1003300006F1240709E0B0FBF2FCB0FBF2F302FB8C
:100340001C00303078541846491C0028F3D123464D
:100350002A463046BDE8F04100F095B800000000A4
:100360002D0000002B0000002000000030B50546E5
:100370000B462A4613F8014B12F8010B08B1A042B4
:10038000F8D01CB1002802D06D1CF1E7284630BD22
:10039000032A40F2308010F0030C00F0158011F8B1
:1003A000013BBCF1020F624498BF11F801CB00F889
:1003B000013B38BF11F8013BA2F1040298BF00F8DD
:1003C00001CB38BF00F8013B11F0030300F025809A
:1003D000083AC0F0088051F8043B083A51F804CBC1
:1003E000A0E80810F5E7121D5CBF51F8043B40F887
:1003F000043BAFF30080D20724BF11F8013B11F892
:1004000001CB48BF11F8012B24BF00F8013B00F8D5
:1004100001CB48BF00F8012B704710B5203AC0F05F
:100420000B80B1E81850203AA0E81850B1E81850F5
:10043000A0E81850BFF4F5AF5FEA027C24BFB1E832
:100440001850A0E8185044BF18C918C0BDE81040A3
:100450005FEA827C24BF51F8043B40F8043B08BFAC
:100460007047D20728BF31F8023B48BF11F8012B73
:1004700028BF20F8023B48BF00F8012B70477047A7
:100480007047704770472DE9F0470D4699469246F0
:10049000044600F124080168880604D5E06921F0CB
:1004A0001001216000E00120A84201DD471B00E0AF
:1004B0000027A1697A1902EB0900081AA0612078C7
:1004C000C00602D42046AFF30080002608E0D4E93D
:1004D00001211AF806009047206A401C761C206211
:1004E0004E45F4DB2078C0060AD52046AFF30080E5
:1004F00006E0D4E9012130209047206A401C2062A8
:10050000381EA7F10107F4DC07E0D4E9012118F84F
:1005100005009047206A401C2062281EA5F10105B5
:10052000F3DC2046AFF300802078000602D50220DD
:10053000BDE8F0870120FBE710B5436913B1AFF3C5
:10054000008001E0FFF7ACFE012010BD127800F141
:1005500024010A7000224A700122EDE711684FF071
:10056000FF32E9E7074B70B50D467B4400F011F808
:100570000446284600F020F810B14FF0FF3070BD5F
:10058000204670BD0317000001694A1C026108780B
:10059000704700B58FB0CDE90131002105910549C3
:1005A0007944CDE9031011466846FFF745FE0FB0C8
:1005B00000BD0000E5FFFFFF007B00F080007047FA
:1005C000754600F029F8AE4605006946534620F00E
:1005D0000700854618B020B5FFF70EFEBDE82040A5
:1005E0004FF000064FF000074FF000084FF0000BEF
:1005F00021F00701AC46ACE8C009ACE8C009ACE8A2
:10060000C009ACE8C0098D4670470446AFF30080CE
:100610002046FFF7DCFD000000487047E80100209D
:1006200008B501210C2000F001FF4FF48070ADF8F7
:10063000000010208DF8030003208DF802006946A9
:10064000084800F0B2FB4FF48070ADF800001020B5
:100650008DF8030003208DF802006946024800F07F
:10066000A4FB08BD00080140000C014070B5044621
:100670000D462246294610A0FFF7D2FD4FF4967092
:1006800001F0AAFA16A11848FFF770FE1749086092
:1006900005E013A11448FFF769FE144908601348E8
:1006A00000680028F5D0104801F05AFA00201049DF
:1006B000087000F067FB70BD41542B514C5744410A
:1006C000544153454E443D31392C302C302C256457
:1006D0002C25732C3078303130300D0A00000000AA
:1006E00053454E44204F4B002001002024000020A1
:1006F0003C00002010B5032400F044FB78A0FFF775
:100700008FFD4FF4967001F067FA77A17748FFF7F5
:100710002DFE7749086010E000F034FB70A0FFF771
:100720007FFD4FF4967001F057FA6FA16F48FFF705
:100730001DFE6F490860601EC4B26D48006808B9AC
:10074000002CE9D11CB96BA001F00AFA02E06DA0FF
:1007500001F006FA6FA0FFF763FD4FF4967001F009
:100760003BFA6FA0FFF75CFD4FF4967001F034FA8E
:100770006EA001F0F5F900F005FB72A0FFF750FD47
:100780004FF4967001F028FA71A15848FFF7EEFD7A
:1007900057490860032411E06EA001F0E1F969A057
:1007A000FFF73EFD4FF4967001F016FA68A14F482E
:1007B000FFF7DCFD4E490860601EC4B24C4800687B
:1007C00008B9002CE8D11CB96DA001F0C9F902E00C
:1007D00070A001F0C5F900F0D5FA73A0FFF720FD75
:1007E0004FF4967001F0F8F900F0CCFA72A0FFF720
:1007F00017FD4FF4967001F0EFF972A13B48FFF737
:10080000B5FD3B490860032410E000F0BBFA6AA084
:10081000FFF706FD4FF4967001F0DEF969A1334849
:10082000FFF7A4FD32490860601EC4B2304800687A
:1008300008B9002CE9D11CB965A001F091F902E0DA
:1008400067A001F08DF900F09DFA69A0FFF7E8FCC0
:100850004FF4967001F0C0F968A12448FFF786FDB7
:100860002349086008460068002838D00846006818
:10087000007A30380968C979303901EB810100EB21
:1008800041006049087008460078632804D0184881
:100890000068C0793038D8B919E00020594981F88A
:1008A0007B0059A001F05CF901205E4908604FF41B
:1008B000967001F091F94FF4967001F08DF90020D7
:1008C0005949C1F8A0014FF4967001F085F9E4E7A9
:1008D00001204C4981F87B0054A001F041F910BD82
:1008E00041540D0A000000004F4B00002001002081
:1008F00024000020CDA8D0C5CAA7B0DCA3A1200D3C
:100900000A000000CDA8D0C5D5FDB3A3A3A1200D3A
:100910000A0000004154453026570D0A000000002F
:1009200041542B4346554E3D310D0A00D5FDD4DAD6
:10093000BCECB2E2BFA8D7B4CCAC2E2E2EA3A10D36
:100940000A00000041542B43494D490D0A000000A4
:1009500034363000BFA8D0C5CFA2D2ECB3A3A3AC2D
:10096000C7EBBCECB2E9BFA8D7B4CCACA3ACBCB469
:10097000BDABD7D4B6AFD6D8C6F4A3A10D0A00003C
:10098000BFA8D0C5CFA2BBF1C8A1CAA7B0DCA3A1A4
:100990000D0A0000BFA8D0C5CFA2BBF1C8A1B3C942
:1009A000B9A6A3A10D0A000041542B43475041446E
:1009B00044523D310D0A000041542B4347415454E9
:1009C0003F0D0A002B43474154543A2031000000A8
:1009D000D7A2CDF8CAA7B0DCA3A10D0A0000000081
:1009E000D7A2CDF8B3C9B9A6A3A10D0A0000000093
:1009F00041542B434553510D0A0000002B434553EE
:100A000051000000A4000020D0C5BAC5CBD1CBF75F
:100A1000CAA7B0DCA3ACC7EBB2E9BFB4D4ADD2F285
:100A2000210D0A00A001214200002142D0C5BAC513
:100A3000C7BFA3A10D0A00001FB5002000900190C0
:100A40000290039003247CA0FFF7EAFB7EA001F054
:100A500087F84FF4967001F0BFF87FA0FFF7E0FB36
:100A60004FF4967001F0B8F87EA0FFF7D9FB4FF471
:100A7000967001F0B1F884A18448FFF777FC8449AF
:100A8000086005E080A18148FFF770FC804908609C
:100A90007F4800680028F5D000F074F97DA0FFF7CA
:100AA000BFFB4FF4967001F097F87DA17748FFF7F0
:100AB0005DFC7749086005E079A17448FFF756FCB2
:100AC00073490860724800680028F5D00F2270480A
:100AD0000168C91D6846FFF75BFC00F053F96946E1
:100AE00071A0FFF79DFB4FF4967001F075F866A1B9
:100AF0006648FFF73BFC6649086005E062A1634871
:100B0000FFF734FC62490860614800680028F5D0AE
:100B100000F038F968A0FFF783FB4FF4967001F0FE
:100B20005BF859A15948FFF721FC5949086005E0D5
:100B300055A15648FFF71AFC55490860544800680B
:100B40000028F5D000F01EF962A0FFF769FB4FF412
:100B5000967001F041F84CA14C48FFF707FC4C4956
:100B6000086005E048A14948FFF700FC48490860D3
:100B7000474800680028F5D05DA000F0F1FF00F0C4
:100B800001F95EA0FFF74CFB4FF47A7001F024F8F6
:100B90005EA13E48FFF7EAFB3D49086010E000F027
:100BA000F1F856A0FFF73CFB40F6B83001F014F81E
:100BB00056A13648FFF7DAFB35490860601EC4B21B
:100BC0003348006808B9002CE9D11CB952A000F0E4
:100BD000C7FF02E056A000F0C3FF5BA12B48FFF760
:100BE000C5FB2B49086005E057A12848FFF7BEFB6D
:100BF00027490860264800680028F5D000F0C2F8B0
:100C000057A0FFF70DFB4FF4967000F0E5FF1EA113
:100C10001E48FFF7ABFB1E49086005E01AA11B4800
:100C2000FFF7A4FB1A490860194800680028F5D0AE
:100C300000F0A8F81FBD000041542B514C57434C05
:100C40004F53450D0A000000B9D8B1D5C9CFB4CE75
:100C5000C1ACBDD30D0A000041542B514C57444543
:100C60004C0D0A0041542B514C57534552563D22CE
:100C70003138302E3130312E3134372E313135226A
:100C80002C353638330D0A004F4B00002001002070
:100C90002400002041542B4347534E3D310D0A00A0
:100CA0002B4347534E3A000041542B514C57434F6E
:100CB0004E463D25730D0A0041542B514C5741447B
:100CC000444F424A3D31392C302C312C2230220DF8
:100CD0000A00000041542B514C574144444F424AB2
:100CE0003D31392C312C312C2230220D0A000000EC
:100CF000D7A2B2E1B3C9B9A60D0A000041542B51E5
:100D00004C574F50454E3D300D0A0000434F4E4E5C
:100D1000454354204F4B0000C1ACBDD3B5E7D0C50F
:100D2000D4C6C6BDCCA8CAA7B0DCA3A10D0A0000DA
:100D3000C1ACBDD3B5E7D0C5D4C6C6BDCCA8B3C978
:100D4000B9A6A3A10D0A00002B514C574F425345A1
:100D50005256453A20302C31392C302C30000000CE
:100D600041542B514C574346473D226461746166A0
:100D70006F726D6174222C312C310D0A000000005D
:100D800000BFFEE7002004E00021054A1154411C89
:100D9000C8B26428F8DB0021024A117070470000D5
:100DA000200100203C00002070472DE9F041024660
:100DB00000250026002000230024002791F803C00E
:100DC0000CF00F0591F803C00CF0100CBCF1000FF3
:100DD00003D091F802C04CEA050591F800C0BCF1BF
:100DE000000F31D0146800202BE04FF0010C0CFAFA
:100DF00000F3B1F800C00CEA03069E4220D1830044
:100E00004FF00F0C0CFA03F7BC4305FA03FC4CEA55
:100E1000040491F803C0BCF1280F06D14FF0010C77
:100E20000CFA00FCC2F814C00AE091F803C0BCF14F
:100E3000480F05D14FF0010C0CFA00FCC2F810C0AD
:100E4000401C0828D1D31460B1F800C0BCF1FF0FDA
:100E500034DD546800202EE000F1080C4FF001084A
:100E600008FA0CF3B1F800C00CEA03069E4221D147
:100E700083004FF00F0C0CFA03F7BC4305FA03FC98
:100E80004CEA040491F803C0BCF1280F05D100F12D
:100E9000080C08FA0CF8C2F8148091F803C0BCF1F1
:100EA000480F07D100F1080C4FF0010808FA0CF8C0
:100EB000C2F81080401C0828CED35460BDE8F081F1
:100EC000F0B50A46002300240021002500F000466A
:100ED000B6F1004F02D11D4EF16901E01B4E716861
:100EE000C0F3034583B200F44016B6F5401F08D1A5
:100EF00021F07061154E766826F07066134F7E60A3
:100F000012E000F48016B6F5801F06D1032606FA1B
:100F100005F4A14341F0706106E0460D360103FA85
:100F200006F6B14341F0706122B1460D360103FA75
:100F300006F6314300F00046B6F1004F02D1034EF1
:100F4000F16101E0014E7160F0BD00000000014060
:100F50000161704700BFFEE7F0B585B004460E465C
:100F600014220FA16846FFF758FA124D374610E0D9
:100F70002078694601EB2010007805F8010B14F881
:100F8000011B01F00F001DF8000005F8010B781E91
:100F9000C7B2002FECDC0025064805B0F0BD00000C
:100FA000303132333435363738394142434445469F
:100FB000000000007200002010B500200A490860FF
:100FC00000F0CEFA00200949C1F8AC01022000F07F
:100FD00029FE012004490860022000F023FE0020C1
:100FE0000249C1F8A80110BDA88121420080214218
:100FF00008B50121082000F019FA4FF44060ADF85F
:10100000000010208DF8030003208DF802006946CF
:101010000148FFF7CAFE08BD000C014010B50020D2
:101020000A49086000F09CFA01200949C1F8AC01A6
:10103000022000F0F7FD012004490860022000F0C2
:10104000F1FD00200249C1F8A80110BDA88121428C
:101050000080214270B50546002400F071FA002698
:1010600016E000200F490860022000F0DBFD01209F
:101070000D49C1F8A8016006040E0A487C380068D2
:1010800008B1601CC4B2012000F0CCFD701CC6B2D7
:10109000082EE6DB15B9FFF7C1FF01E0FFF78CFF73
:1010A000204670BDA88121420080214270B50446CF
:1010B00000F056FA00201349086000251EE0E00900
:1010C00020B101200F49091D086003E000200D49EF
:1010D000091D08606006040E022000F0A3FD012037
:1010E00008490860022000F09DFD00200649C1F873
:1010F000A801022000F096FD681CC5B2082DDEDBB9
:1011000070BD0000A88121420080214210B500F08E
:1011100027FA0120094908600949C1F8A8010420FB
:1011200000F080FD002005490860042000F07AFDF1
:1011300000200349C1F8A80110BD0000AC81214284
:101140000080214210B500F00BFA00200849086029
:101150000849C1F8AC01042000F064FD01200449F5
:1011600008600449C1F8AC01042000F05BFD10BD2B
:10117000A88121420080214210B5002400F0E0F94E
:10118000012011490860022000F04CFD01200F49A8
:10119000C1F8A801022000F045FD0AE0601CC4B2BD
:1011A000FA2C06DDFFF7CEFF09A0FFF739F8012082
:1011B00010BD0548803800680028EFD10249091F9A
:1011C000086000BFF4E70000AC81214200802142AA
:1011D000726573706F6E65206661696C0000000057
:1011E00008B501210D2000F021F94FF40040ADF8C1
:1011F000000010208DF8030003208DF802006946DE
:101200000E48FFF7D2FD4FF400410C48FFF7A0FE57
:101210000220ADF8000010208DF8030003208DF8A7
:10122000020069460548FFF7C0FD02210348FFF7A9
:101230008FFE01210248FFF743FE08BD0008014070
:101240000002300010B500F0A5FCFFF7C9FFFFF762
:10125000E7F94FF4A06000F04DF84FF4E13000F0F2
:1012600095FD4FF4E13000F03DFD00F0AAF900F0EB
:101270004BF8FFF73FFAFFF7DFFB10BD00BFFEE7BB
:101280007047000070B5002100230F22C47804B31A
:10129000154C246804F4E064C4F5E064210AC1F14B
:1012A0000403CA40447804FA03F1847814402143CB
:1012B00009010E4C0678A155047804F01F0501249D
:1012C000AC4005786D11AD0005F1E025C5F8004191
:1012D00009E0047804F01F050124AC40044D0678B1
:1012E000761145F8264070BD0CED00E000E400E00A
:1012F00080E100E002490143024A116070470000AA
:101300000000FA050CED00E010B52CA0FEF788FFF8
:101310004FF4967000F060FC2AA12B48FFF726F8E6
:10132000044626A0FEF77CFF4FF4967000F054FCB4
:1013300024A12548FFF71AF80446B4B9012023492F
:1013400008604FF4967000F047FC4FF4967000F080
:1013500043FC4FF4967000F03FFC4FF4967000F0A1
:101360003BFC00201A49C1F8A00114A0FEF758FF69
:101370004FF4967000F030FC12A11348FEF7F6FF10
:10138000044674B90120134908604FF4967000F0C8
:1013900023FC4FF4967000F01FFC00200E49C1F8AA
:1013A000A0010EA0FEF73CFF4FF4967000F014FC75
:1013B000002008491C39086010BD000041540D0A86
:1013C000000000004F4B000020010020A0812142BE
:1013D00000802142A00121420000214241544530B9
:1013E00026570D0A000000007047000029B1064A88
:1013F000D2690243044BDA6104E0034AD2698243B2
:10140000014BDA61704700000010024029B1064A22
:1014100012690243044B1A6104E0034A12698243D1
:10142000014B1A61704700000010024029B1064AC2
:1014300092690243044B9A6104E0034A9269824331
:10144000014B9A61704700000010024029B1064A22
:10145000D2680243044BDA6004E0034AD268824354
:10146000014BDA60704700000010024030B50021E7
:101470000022002400232D4D6D6805F00C0121B1E0
:10148000042905D0082923D105E0294D056022E073
:10149000274D05601FE0254D6D6805F47012234D42
:1014A0006D6805F48034022505EB92421CB9214D8C
:1014B000554305600BE01D4D6D6805F400351DB109
:1014C0001C4D5543056002E0194D5543056002E08F
:1014D000174D056000BF00BF144D6D6805F0F001A9
:1014E0000909154D6B5C0568DD4045600F4D6D6861
:1014F00005F4E061090A104D6B5C4568DD408560CC
:101500000A4D6D6805F46051C90A0B4D6B5C456866
:10151000DD40C560054D6D6805F44041890B074D00
:101520006B5CC568B5FBF3F5056130BD001002408A
:1015300000127A0000093D00400000205000002009
:1015400008B54FF40060ADF8000048208DF80300A6
:1015500069460248FFF729FC08BD0000000C014065
:1015600008B54FF40060ADF8000010208DF80300BE
:1015700003208DF8020069460348FFF716FC01209E
:101580000249086008BD0000000C0140AC81214206
:1015900010B50446FFF7BAFD8820FFF787FDFFF777
:1015A000EBFD200AFFF782FDFFF7E6FDE0B2FFF753
:1015B0007DFDFFF7E1FDFFF7C5FD322000F00CFBDC
:1015C00010BD10B5FFF714FD10BD00002DE9FF5F41
:1015D0000446894642F60640FFF7DAFFFFF796FD1C
:1015E0008920FFF763FDFFF7C7FD0120FFF732FDFC
:1015F0008DF808000120FFF72DFD8DF8090001206E
:10160000FFF728FD8DF80A000120FFF723FD8DF874
:101610000B000120FFF71EFD8DF80C000020FFF7E6
:1016200019FD8DF80D00FFF78DFD022102A800F0D5
:1016300067F89DF80A1088424DD102210DF10B0088
:1016400000F05EF89DF80D10884244D19DF8091015
:101650009DF8082001EB0221A1F10A0000F047FEED
:1016600007460022204B00F059FE054600221F4B82
:1016700000F088FC824600221D4B00F0DBFBCDE928
:10168000000100F0D7FD20609DF80C109DF80B20A4
:1016900041EA0221642201FB02F000F028FE074625
:1016A0000022124B00F06EFC054600F0F3FDA9F895
:1016B000000040F2E2412068884202DD08462060D6
:1016C00005E0206810F5C87F01DA0A482060002094
:1016D00004B0BDE8F09F00202060A9F8000006A03B
:1016E000FEF79EFD0120F3E700E06540E0FFEF40DC
:1016F000008046C070FEFFFF6661696C000000005C
:1017000030B502460B46FF20002113E0555C6840CF
:1017100008240BE000F0800525B1312585EA40055D
:10172000E8B201E04506280E651EECB2002CF1DCA3
:101730004D1CE9B29942E9DB30BD704710B500F0AD
:1017400001F810BD0CB500200190009033480068EE
:1017500040F480303149086000BF3048006800F430
:10176000003000900198401C0190009818B9019831
:10177000B0F5A06FF1D12948006800F4003010B135
:101780000120009001E0002000900098012843D142
:101790002348006840F010002149086008460068AE
:1017A00020F0030008600846006840F0020008606E
:1017B0001A48406819494860084640684860084629
:1017C000406840F4806048600846406820F47C101F
:1017D00048600846406840F4E810486008460068E1
:1017E00040F08070086000BF0C48006800F0007096
:1017F0000028F9D00948406820F0030007494860F4
:101800000846406840F00200486000BF0348406856
:1018100000F00C000828F9D10CBD000000100240B7
:1018200000200240042808D14FF0E021096941F06E
:1018300004014FF0E022116107E04FF0E021096957
:1018400021F004014FF0E022116170477047000061
:1018500010B51348006840F00100114908600846BF
:101860004068104908400E494860084600680E4923
:1018700008400B4908600846006820F48020086092
:101880000846406820F4FE0048604FF41F0088605E
:10189000FFF754FF4FF000600449086010BD0000DE
:1018A000001002400000FFF8FFFFF6FE08ED00E028
:1018B00010B540F22551084800F090F858B106489C
:1018C00000F048F9C1B2054802780078401C034B8B
:1018D00018700348815410BD003801403D000020BD
:1018E0008401002010B540F225510C4800F076F834
:1018F00090B10A4800F02EF9C1B209480278007888
:10190000401C074B1870074881541846007863281C
:1019100002DD00201946087010BD000000440040A0
:101920003C0000202001002021B1828942F40052B5
:10193000828104E082894DF6FF731A4082817047EC
:1019400010B504462048844209D101218803FFF7DD
:101950007DFD00214FF48040FFF778FD32E01B4809
:10196000844209D101214804FFF750FD00214FF4C2
:101970000030FFF74BFD25E01548844209D10121D5
:101980008804FFF743FD00214FF48020FFF73EFD60
:1019900018E01048844209D10121C804FFF736FD40
:1019A00000214FF40020FFF731FD0BE00A4884428C
:1019B00008D101210805FFF729FD00214FF480100F
:1019C000FFF724FD10BD0000003801400044004036
:1019D00000480040004C00400050004070B50246F6
:1019E000002400230025002040F66A16B14200D1F1
:1019F00000BFC1F3421501F01F03012606FA03F3ED
:101A0000012D02D19689334006E0022D02D1168ABB
:101A1000334001E0968A33400C12012606FA04F4A2
:101A20001688344013B10CB1012000E0002070BDD5
:101A3000F0B50346002400260025002040F66A1772
:101A4000B94200D100BF1846C1F3421401F01F068D
:101A5000012707FA06F5012C01D10C3004E0022C15
:101A600001D1103000E014301AB107682F4307602D
:101A700002E00768AF430760F0BD00002DE9F047C2
:101A800086B005460E460024A24600BFA1460027A8
:101A9000B08900B100BF2F462C8A4CF6FF7004407D
:101AA000F08804432C82AC894EF6F3100440B088D1
:101AB00031890843718908430443AC81AC8A4FF6ED
:101AC000FF400440B0890443AC8201A8FFF7CEFC7C
:101AD0001F48874202D1DDF810A001E0DDF80CA01C
:101AE000A88900F4004040B10AEBCA0000EB0A10DC
:101AF00031684900B0FBF1F807E00AEBCA0000EBDF
:101B00000A1031688900B0FBF1F86420B8FBF0F0EE
:101B100004012009642101FB1089A88900F4004018
:101B200040B1322000EBC900B0FBF1F000F007003B
:101B3000044308E0322000EB09106421B0FBF1F00F
:101B400000F00F0004432C8106B0BDE8F0870000D0
:101B50000038014001468888C0F308007047000043
:101B60000BE000BF0749098801F040010029F9D0C6
:101B70000178044A121D1180401C01780029F0D11F
:101B8000704700000038014000BFFEE7014600BF7B
:101B90007047000010B56FF00400FFF743FE0A48DD
:101BA00000680A49B0FBF1F009490870084600785E
:101BB00000EB4001C1EBC0104FF6FF7101EAC0001D
:101BC0000449088010BD00001000002000127A00B7
:101BD0002E000020300000200146114A12884A439E
:101BE0004FF0E0235A6100229A611A46126942F0CE
:101BF00001021A6100BF4FF0E022106900F00102FB
:101C00001AB100F48032002AF5D04FF0E0221269B8
:101C100022F001024FF0E0231A6100229A6170471E
:101C2000300000200146114A12784A434FF0E02369
:101C30005A6100229A611A46126942F001021A6141
:101C400000BF4FF0E022106900F001021AB100F469
:101C50008032002AF5D04FF0E022126922F0010212
:101C60004FF0E0231A6100229A6170472E00002095
:101C700000BF054A128802F04002002AF9D0C2B221
:101C8000014B1B1D1A80704700440040FFF7DAFA31
:101C900001E000F001F8FCE710B531200E490870B2
:101CA000012048700D490E48FFF790FC0C48007861
:101CB0000949887009480078C87004210648FFF770
:101CC0004BF9044604212046FEF7D0FC4FF47A700D
:101CD000FFF782FF10BD0000000000200C00002074
:101CE0000800002010B586B0044601210420FFF74B
:101CF0009DFB01214804FFF779FB2248FFF720FEF6
:101D00000420ADF8140003208DF8160018208DF87B
:101D1000170005A91C48FFF748F80820ADF8140083
:101D200004208DF8170005A91748FFF73EF8262074
:101D30008DF8000000208DF8010001208DF80200D0
:101D40008DF803006846FFF79DFA01940020ADF876
:101D50000800ADF80A00ADF80C00ADF810000C203A
:101D6000ADF80E0001A90748FFF788FE012240F2F6
:101D700025510448FFF75CFE01210248FFF7D4FD1E
:101D800006B010BD004400400008014010B586B008
:101D90000446012144F20400FFF748FB2348FFF703
:101DA000CFFD4FF40070ADF8140003208DF816003D
:101DB00018208DF8170005A91D48FEF7F6FF4FF40F
:101DC0008060ADF8140048208DF8170005A9184868
:101DD000FEF7EBFF25208DF8000003208DF80100B1
:101DE0008DF8020001208DF803006846FFF74AFADB
:101DF00001940020ADF80800ADF80A00ADF80C0021
:101E0000ADF810000C20ADF80E0001A90748FFF74F
:101E100035FE012240F225510448FFF709FE012159
:101E20000248FFF781FD06B010BD000000380140F8
:101E30000008014010B591EA030F48BF83F000434A
:101E400000F17283841A71EB030C05D2121943EB73
:101E50000C03001B61EB0C01DFF824E14FEA115485
:101E6000A4EB135C1EEA430F18BF9EEA445F73D0D5
:101E700023EA0E03DCF1200E21EA045143F480131F
:101E800032D322FA0CFE10EB0E0023FA0CFE41EBCB
:101E90000E01CCF1200E03FA0EFE10EB0E0051F1F4
:101EA0000001B1F5801FCCF1200E32D201EB0451BC
:101EB00012FA0EF2BDE8104058BF7047401C38BF00
:101EC0005FEA420218BF7047002814BF20F00100EB
:101ED00041F100014FEA410313F5001F38BF70477D
:101EE000A1F1C04100F012BB012A43EB0302ACF1A7
:101EF000200CDCF11F0E32BF4FF0000E23FA0CF362
:101F000010EB030041EB0451B4EB115FD0D0A1EB17
:101F1000045101F5801149085FEA300001EB0451DA
:101F20000ED350F1000038BF12FA0EFE08D1BDE802
:101F30001040C9E7401C38BF5FEA4202CAD1C3E77C
:101F4000BDE810404FEA410313F5001F38BF70474A
:101F5000A1F1C04100F0DABA9EEA445F08D011EA6C
:101F60005E0FBDE8104004BF01F000410020704743
:101F7000BDE8104070B500F07BFA00BF64FBBE3EC8
:101F80000000E0FF2DE9C04130B4DFF8A0C23CEA18
:101F9000111418BF3CEA131400F0EC8081EA030529
:101FA0001CEA111444EAD57418BF1CEA131500F09A
:101FB000C780A4EB05044FF0004545EAC12145EA7E
:101FC000C32341EA505143EA525304F17F749942CA
:101FD00004F500344FEAC0204FEAC22208BF904205
:101FE00000F09C804FEA13650FF24016765D4FEAD1
:101FF000134506FB05F7C7F1807706FB07F74FEAA5
:10200000D737A7FB03687642C8F58038A7FB06CE12
:1020100038BFA8F1010807FB08E64FF0000EA6FB49
:10202000028CE6FB03CEDCF1000CCEF1004E38BF93
:10203000AEF1010EA6FB0C584FF000074FF0000563
:10204000E6FB0E87A1FB08C6A0FB07CE16EB0E062B
:1020500045F10005E1FB076515F1E04E7EBFA4F5F3
:1020600080345FEA46066D4116F1800745F10005B0
:102070004FEA17274FEA066647EA0567A6F1DE46EC
:10208000B6F1805F4FEA15251FD9384624F0010CC0
:1020900005EBC471BCF1FE6F01EB0C1102D8F0BC72
:1020A000BDE8008124425CBF01F5801E9EEAC47F2A
:1020B00002D4F0BCBDE80081244238D4F0BCA1F1C8
:1020C000C041BDE8004100F021BA4FEAD22242EA05
:1020D00043524FEAD323A7FB02864FEAD02040EABF
:1020E000415007FB03661EEA0E0F4FEAD12105FBA4
:1020F000026658BFA6EB0056B6EB00564FEA520EEA
:102100004EEAC37E18EB0E0E56EB530EBDD518EB00
:1021100002085E417F1C55F10005B6E74FF48015BB
:102120004FF000074FF000064FF00008ADE7F0BC9D
:102130004FF0000001F1C04101F00041BDE8008115
:1021400011EA0C1F0CEA131500D00CE013EA0C1F67
:1021500000F025804FF00000F0BC81EA030101F09F
:102160000041BDE80081F0BCBDE8004181EA030107
:1021700000F0CCB9F0BCBDE8004170B500F078F9D2
:10218000097EFC3E00F007B881EA03014FF0000031
:1021900001F00041704781EA030100F0B7B9F0BCDB
:1021A000BDE800414FF0000021497047FFFDFBF9F9
:1021B000F7F5F4F2F0EEEDEBE9E8E6E4E3E1E0DE7A
:1021C000DDDBDAD8D7D5D4D3D1D0CFCDCCCBCAC8EC
:1021D000C7C6C5C4C2C1C0BFBEBDBCBBBAB9B8B713
:1021E000B6B5B4B3B2B1B0AFAEADACABAAA9A8A806
:1021F000A7A6A5A4A3A3A2A1A09F9F9E9D9C9C9BD4
:102200009A9999989797969595949393929191907E
:102210008F8F8E8E8D8C8C8B8B8A8989888887870F
:102220008685858484838382828181800000FF0784
:102230000000F87F4FEA41034FEA5353A3F5806350
:10224000D3F11E03C8BFD3F1210C0CDD4FF00042C7
:1022500042EAC12242EA505232FA03FC8CEAE17CA3
:10226000ACEBE1707047102BC4BF0020704703F542
:10227000787CBCF1FF3F04D06FF0004282EA21007D
:10228000704770B500F0F4F8499224800020704740
:10229000F2E700004FEA1153A3F58063D3F11E0368
:1022A000A8BFD3F1200C08DB4FF0004242EAC12264
:1022B00052EA505232FA03F0704709420BD4102B05
:1022C000C4BF0020704703F5787CBCF1FF3F05D008
:1022D0004FF0FF3070474FF00000704770B500F0CE
:1022E000C7F800BF4992248000207047F0E710F043
:1022F000004248BF4042B0FA80F310FA03F10AD01E
:10230000C3F11D0303F580634FEA415002EB035212
:1023100002EBD12170474FF000007047DFF848C151
:1023200070B51CEA111E1EBF1CEA13159EEA0C0FA5
:1023300095EA0C0F00F06F8081EA030423EA4C1346
:102340004EEAD47E21EA4C1141F4801143F480130B
:10235000AE44A1FB024CA0FB0365AEF17F7E3619B3
:1023600055EB0C05A1FB034C4CF10003A0FB021C38
:1023700016EB0C06654153F10003094218BF46F005
:10238000010613F4007F0BD14FEA03314FEA053009
:10239000340341EA155140EA16506FF003020AE097
:1023A0004FEAC3214FEAC520F40241EA555140EA01
:1023B00056506FF0020202EB2E4201EB025585EA05
:1023C000CE710AD05FEA440C18BF24F0004450F1EB
:1023D000000041F1000120EAD47040F2FE7C624529
:1023E00000D270BDA84214BF4FF080444FF040446B
:1023F000002E08BF0024BEF1806FA8BFA1F1C0412C
:10240000BDE8704080F282804FF0000001F1C041D1
:1024100001F0004170479EEA0C0F0CEA131518BF3B
:1024200095EA0C0F06D04FF0000081EA030E0EF083
:10243000004170BD00F01CF88900013E00F007B8B3
:1024400000F009B84FEA430C5FEA5C5C08D081EA0F
:10245000030100F05BB84FEA410C5FEA5C5CF6D127
:102460004FF00000014970470000FF070000F87FAF
:102470000EF1020E2EF0030E5EF8046B364205D408
:10248000012A43EB030515F5001F12D8012841EB83
:10249000010C1CF5001F0CD80ED14FEAD17C15F5AC
:1024A000001F0CEB4C0C0CF1020C08BF4CEBD37C66
:1024B00004E04FF0080C01E04FEAD37C0CEB4C0534
:1024C00026FA05F606F00706B6F1040C06D20EEB66
:1024D000860CBDE870404CF0010C6047DFE80CF062
:1024E000090B02024FF000414FF00000A1F500215E
:1024F00070BD19461046012851EB010418BFD4F5F0
:10250000001484BF002001F0004170BD0808A0F550
:1025100000114FEA3101704710B591EA030F48BF2F
:1025200083F000433FF58EAC841A71EB030C07D2A5
:1025300012198CF0004C43EB0C03001B61EB0C01F7
:10254000DFF8A4E14FEA1154A4EB135C1EEA430F39
:1025500018BF9EEA445F00F0B08023EA6E03524247
:1025600021EA0451C3EB6E0338BF5B1EDCF1200E81
:1025700025D322FA0CFE10EB0E0043FA0CFE41EBC1
:102580000E01CCF1200E03FA0EFE10EB0E0051F1FD
:102590000001CCF1200E29D412FA0EF201EB045105
:1025A000BDE8104058BF7047401C1CBFB2F1004F3F
:1025B000704700280CBF491C20F00100704712EB47
:1025C000020E43EB030218BF4FF0010E4EEA420227
:1025D000ACF1200CDCF11E0E54D943FA0CFE10EBCA
:1025E0000E0051F1FF31CCF11E0ED5D50EF1010ECA
:1025F00012FA0EFE404141EB010101EB445C5FEA3F
:102600005C5C10D910EBDE7001EB045138BFBEF1F9
:10261000004FBDE8104018BF704700280CBF491C90
:1026200020F00100704730D24FEAD42C11F5001190
:1026300024F400641BD0B1FA81F20B3AA41AA41E50
:10264000D2F12003914030FA03F31943904001EB9B
:10265000CC71002C01EB0451BDE81040A8BF7047BD
:1026600001F1C0414FF0000001F000417047B0FAA5
:1026700080F310FA03F100D110BDE41A173C4805AD
:10268000C90AE4E701EB045110BD491001EB045104
:10269000BDE810404FEA300002E04FF00001704703
:1026A0004A0008BF0042F8D0B2F5001F28BF7047AB
:1026B00001F000414FF0000070479EEA445F07D0F0
:1026C00011EA5E0FBDE8104004BF002100207047F2
:1026D000BDE8104070B5FFF7CBFE00BF40DFF63E0F
:1026E00083F00041104670470000E0FF0C2700080F
:1026F00000000020540000006C0100086027000862
:1027000054000020F40700008801000800000000C9
:1027100000000000000000000000000000A24A04C9
:102720000000000000000000010203040607080981
:102730000000000000000000000000000000000099
:102740000000000000000000000000000000000089
:102750000102030401020304060708090204060833
:04000005080001DD11
:00000001FF
